:040000000CEF6CF0A5
:10D58E00280C0106EBFFEBFF000EC26EC280890E67
:10D59E00C06E1200036E000E026E3A0E036005D0CE
:10D5AE002F0E036402D0010E026E02C001F0013094
:10D5BE001200000EC26E0C0EC16E9368800E946E39
:10D5CE00000E826E9268000E956E000E966E120020
:10D5DE00086E08C007F0073A835007180F0B07189C
:10D5EE00836E010E85EC6BF08482040000F0849251
:10D5FE001200000E046E000E036E06D0FA0E04002A
:10D60E00E82EFDD7034A042A0350015C0450025849
:10D61E00D8A01200F3D7015002100310D8B406D0D0
:10D62E00000E011A000E021A800E031A01C001F03C
:10D63E0002C002F003C003F0120009D00FC0D9FFE0
:10D64E0010C0DAFFDF50B0EC6CF00F4A102A0FC09A
:10D65E00D9FF10C0DAFFDF50D8B41200EFD70F5049
:10D66E001102F3CF13F0F4CF14F00F501202F35057
:10D67E00142610501102F350142613C00FF014C0CC
:10D68E0010F01200F092010E026E2C0E016E00ECE4
:10D69E006BF0020E7B187C10D8A405D0000E7C6EA9
:10D6AE00000E7B6E12007B4A7C2A1200F292010E53
:10D6BE00026E2C0E016E00EC6BF0020E79187A10D1
:10D6CE00D8A405D0000E7A6E000E796E1200794A3B
:10D6DE007A2A1200F090010E026E2C0E016E00ECF2
:10D6EE006BF0020E7D187E10D8A405D0000E7E6E53
:10D6FE00000E7D6E12007D4A7E2A1200046E000E10
:10D70E00066E000E056E03D00400054A062A04506C
:10D71E00016E026A0550015C0250800A036E0650CB
:10D72E00800A0358D8A01200EFD7F0920001BC0572
:10D73E000001BD11D8A406D0000E0001BD6F000E71
:10D74E00BC6F12000001BC510001BD11D8A4120023
:10D75E00000E0001BD6F010EBC6F1200000E186EA0
:10D76E0016AE06D0156C161ED8B0162A010E186EFF
:10D77E0015C001F016C002F0036A8E0E046E18C0BA
:10D78E0005F018EC6FF001C015F002C016F003C0E2
:10D79E0017F01200076E07C003F003460346C2508F
:10D7AE000318C30B0318C26EC282C2B2FED7C35097
:10D7BE00C4CF03F0046A03C004F0036A0310056EBD
:10D7CE000450066E05C001F006C002F01200000102
:10D7DE00B8510001B911D8A40CD0D30E0001E26FDC
:10D7EE00FF0E0001E36F000E0001B56F000EB46F67
:10D7FE001200CA0E0001E26FFF0E0001E36F000E71
:10D80E000001B56F010EB46F120000EEB0F02E0ED7
:10D81E00EE6AE806FDE100EE77F0080EEE6AE80625
:10D82E00FDE18E0EF66ED50EF76E000EF86E00EE62
:10D83E00DEF010EE08F00900F5CFEEFFE550E150F6
:10D84E00FAE10001F7EF75F00001BC510001BD11C6
:10D85E00D8A40CD0EB0E0001E46FFF0E0001E56FB3
:10D86E00000E0001B76F000EB66F1200E50E00013C
:10D87E00E46FFF0E0001E56F000E0001B76F010EA1
:10D88E00B66F0CEC6EF012003D503E103F10D8B447
:10D89E0006D0000E3D1A000E3E1A800E3F1A3AC0F8
:10D8AE002EF03BC02FF03CC030F03DC031F03EC0FA
:10D8BE0032F03FC033F0ECEC73F02EC03AF02FC0D4
:10D8CE003BF030C03CF012000C6E09D0800E05D03B
:10D8DE00C00E03D0900E01D0D00E0D6E0DD00B5099
:10D8EE00010AD8B4F3D7030AD8B4F2D7010AD8B4D0
:10D8FE00F1D7070AD8B4F0D70C040D260D508009C5
:10D90E00096E000E8CEC6CF012000A6E0AB002D09A
:10D91E00849401D08484010E85EC6BF0010E85ECAD
:10D92E006BF0849209380F0BEFEC6AF009500F0B75
:10D93E00EFEC6AF00A50D8B405D0320E0400E82E8F
:10D94E00FDD71200000E026E020E016E00EC6BF09F
:10D95E0012000E6E1ED0010E096E000E8CEC6CF0D5
:10D96E00000E026E020E016E00EC6BF01200020E43
:10D97E000B6E010E6BEC6CF01200100E096E000EA9
:10D98E008CEC6CF012000EC009F0010E8CEC6CF0F9
:10D99E0012000E50080AD8B4F0D7020AD8B4E7D74E
:10D9AE00060AD8B4D8D7EFD78E0E116E06D0D890FF
:10D9BE000C320B320A320932112A000E09140D6E86
:10D9CE00000E0A140E6E000E0B140F6EFF0E0C14CA
:10D9DE00106E0D500E100F101010D8A4E8D709C0FD
:10D9EE0001F00AC002F00BC003F011C004F0000EEB
:10D9FE00056E18EC6FF001C009F002C00AF003C00A
:10DA0E000BF0120084948492000E026E190E016EB9
:10DA1E0000EC6BF0010E0B6E030E0B6401D00BD0FD
:10DA2E00030EEFEC6AF0000E026E060E016E00ECB5
:10DA3E006BF00B2AF1D7020EEFEC6AF0000E0B6EB4
:10DA4E00030E0B6401D012000B50010DDE0EF324F9
:10DA5E00D96E000EF420DA6EDF50096E000E8CECDB
:10DA6E006CF00B2AEDD71250131014101510D8B4F9
:10DA7E0024D0010E166E06D0D890123613361436F8
:10DA8E001536162A15AEF8D712500E5C13500F58D5
:10DA9E001450105815501158D8A008D012500E5EC0
:10DAAE0013500F5A1450105A1550115AD89015324F
:10DABE00143213321232162EE7D70EC00EF00FC0EC
:10DACE000FF010C010F011C011F01200306E305077
:10DADE00D1EC6BF001C02EF002C02FF02EC00FF073
:10DAEE002FC010F0000E126E050E116E36EC6BF09C
:10DAFE000FC015F010C016F0B5EC6BF015C019F094
:10DB0E0016C01AF017C01BF0C00E1C6E7F0E1D6ED5
:10DB1E00440E1E6E6FEC6FF019C02BF01AC02CF075
:10DB2E001BC02DF02BC028F02CC029F02DC02AF0E0
:10DB3E0012003B0E73187410D8A40AD0010E712473
:10DB4E00716E000E7220726E000E746E000E736E89
:10DB5E00725004E13C0E715CD8A00AD0010E6F2405
:10DB6E006F6E000E7020706E000E726E000E716E73
:10DB7E00705004E1180E6F5CD8A00CD0000E726EBF
:10DB8E00000E716E000E746E000E736E000E706ECF
:10DB9E00000E6F6E734A742A1200000E066E02AEED
:10DBAE0006D0016C021ED8B0022A010E066E04AE1B
:10DBBE0004D0036C041ED8B0042A03500410D8B449
:10DBCE0018D0010E056E04D0D89003360436052AFF
:10DBDE0004AEFAD70350015C04500258D8A004D00A
:10DBEE000350015E0450025AD89004320332052EBF
:10DBFE00F1D70650D8B404D0016C021ED8B0022A58
:10DC0E0001C001F002C002F012000001BC050001CB
:10DC1E00BD11D8A4120075507610D8B404D0750674
:10DC2E00D8A0760612000001E6510001E711D8B423
:10DC3E0009D00001E607D8A0E707000E766E3B0E6E
:10DC4E00756E120077507810D8B40DD07706D8A024
:10DC5E007806000E0001E76F3B0EE66F000E766E43
:10DC6E003B0E756E1200000E786E000E776E000E73
:10DC7E000001E76F000EE66F000E766E000E756EF9
:10DC8E00000E0001BD6F000EBC6F1200000E096E7B
:10DC9E00000E0A6E000E0B6E000E0C6E0550061076
:10DCAE0007100810D8B42AD0010E0D6E06D0D890E9
:10DCBE0005360636073608360D2A08AEF8D7D89040
:10DCCE0009360A360B360C360550015C06500258E2
:10DCDE000750035808500458D8A009D00550015ECB
:10DCEE000650025A0750035A0850045A0980D89019
:10DCFE0008320732063205320D2EE1D709C001F087
:10DD0E000AC002F00BC003F00CC004F01200000EAB
:10DD1E000C6E0AAE06D0096C0A1ED8B00A2A010E85
:10DD2E000C6E08AE06D0076C081ED8B0082A010E7D
:10DD3E000C1A000E0E6E000E0D6E09500A10D8B49D
:10DD4E001CD0010E0B6E04D0D89009360A360B2A61
:10DD5E000AAEFAD7D8900D360E360950075C0A5027
:10DD6E000858D8A005D00950075E0A50085A0D80F1
:10DD7E00D8900A3209320B2EEDD70C50D8B404D0FD
:10DD8E000D6C0E1ED8B00E2A0DC007F00EC008F096
:10DD9E00120003AE16D001C007F002C008F003C097
:10DDAE0009F0071E081E091E072A000E0822092266
:10DDBE00000E0724016E000E0820026E800E092050
:10DDCE00036E06AE16D004C007F005C008F006C0FC
:10DDDE0009F0071E081E091E072A000E0822092236
:10DDEE00000E0724046E000E0820056E800E09201A
:10DDFE00066E000E011A000E021A800E031A000E95
:10DE0E00041A000E051A800E061A0450015C055005
:10DE1E00025806500358D8B002D0D8901200D880BD
:10DE2E0012000450D8B405D0015002100310D8A42B
:10DE3E000CD0000E016E000E026E000E036E12006C
:10DE4E00042AD890033202320132000E0114066EFB
:10DE5E00000E0214076EFE0E0314086E0650071015
:10DE6E000810D8B40CD0ECD7042A010E0126000EEF
:10DE7E000222000E0322D890033202320132000E2B
:10DE8E000114066E000E0214076EFF0E0314086EC8
:10DE9E00065007100810D8B406D0E6D70406D8905E
:10DEAE0001360236033602BE03D0020E0460F6D7E8
:10DEBE0004A0029ED8900432045003120550D8A438
:10DECE00038E01C001F002C002F003C003F0120085
:10DEDE001BC01FF0206A216A1A341F3601E320800E
:10DEEE001F50266E2650D8A407D0000E196E000EB5
:10DEFE001A6E000E1B6E12001EC01FF0206A216AE1
:10DF0E001D341F3601E320801F50276E2750D8A4E2
:10DF1E0007D0000E196E000E1A6E000E1B6E120048
:10DF2E00000E236E000E246E000E256E2750890FF4
:10DF3E00265E1BC027F01E50271A800E27161A8E3B
:10DF4E00FF0E1916FF0E1A16000E1B161D8EFF0E53
:10DF5E001C16FF0E1D16000E1E16180E226ED890E1
:10DF6E002336243625361C50195C1D501A581E5067
:10DF7E001B58D8A007D01C50195E1D501A5A1E509F
:10DF8E001B5A2380D89019361A361B36222EE7D705
:10DF9E0023C001F024C002F025C003F026C004F017
:10DFAE0027C005F018EC6FF001C019F002C01AF08E
:10DFBE0003C01BF012002DC02FF0306A316A2C34D2
:10DFCE002F3601E330802F50396E3950D8A409D046
:10DFDE00000E2B6E000E2C6E000E2D6E000E2E6E91
:10DFEE001200170E2F6E2BC030F02CC031F02DC04A
:10DFFE0032F02F28336E04D0D89032323132303294
:10E00E00332EFAD73050346E2C8EFF0E2B16FF0E99
:10E01E002C16000E2D162B50356E2C50366E2D50A4
:10E02E00376E386A8E0E395E39AE16D03950800A88
:10E03E008F0FD8B009D0000E2B6E000E2C6E000E76
:10E04E002D6E000E2E6E1200D890383237323632C8
:10E05E003532393EF9D715D0170E39640FD0000E70
:10E06E002B6E000E2C6E000E2D6E000E2E6E1200FC
:10E07E00D890353636363736383639063950D8A434
:10E08E00F7D73450D8B408D0381E371E361E356C2C
:10E09E00000E36223722382235C02BF036C02CF037
:10E0AE0037C02DF038C02EF0120017C01BF01C6ABE
:10E0BE001D6A16341B3601E31C801B501E6E1E504B
:10E0CE00D8A407D0000E156E000E166E000E176E39
:10E0DE0012001AC01BF01C6A1D6A19341B3601E3AC
:10E0EE001C801B50236E2350D8A407D0000E156E33
:10E0FE00000E166E000E176E120023507B0F1E269A
:10E10E0017C023F01A50231A800E2316168E198E5E
:10E11E00FF0E1816FF0E1916000E1A16000E1F6EA1
:10E12E00000E206E000E216E070E226E15A006D078
:10E13E0018501F26195020221A502122D89017321B
:10E14E0016321532D890183619361A36222EEED7C8
:10E15E00090E226E15A006D018501F261950202227
:10E16E001A502122D890173216321532D8902132F9
:10E17E0020321F32222EEED71FC001F020C002F037
:10E18E0021C003F01EC004F023C005F018EC6FF0A0
:10E19E0001C015F002C016F003C017F0120073D0C4
:10E1AE00BE0E406E000E416E630E426EFF0E436E4B
:10E1BE00C1EC79F01200BE0E406E000E416E9C0E48
:10E1CE00426EFF0E436EC1EC79F01200BE0E406E31
:10E1DE00000E416E820E426EFF0E436EC1EC79F060
:10E1EE001200BE0E406E000E416EB40E426EFF0E59
:10E1FE00436EC1EC79F012007BC06DF07CC06EF006
:10E20E006E50000AD8A412006D50000AD8B4D3D7AD
:10E21E00010AD8B4DBD7030AD8A41200E2D7BE0E87
:10E22E00406E000E416EA80E426EFF0E436EC1ECA4
:10E23E0079F01200BE0E406E000E416E8F0E426ED1
:10E24E00FF0E436EC1EC79F01200BE0E406E000E52
:10E25E00416EBF0E426EFF0E436EC1EC79F012009E
:10E26E007DC06DF07EC06EF06E50000AD8A4120014
:10E27E006D50000AD8B4D3D7010AD8B4DBD7030A3D
:10E28E00D8A41200E2D779C06DF07AC06EF06E504D
:10E29E00000AD8A412006D50000AD8B481D7010A22
:10E2AE00D8B4AAD7030AD8A41200DAD70334043498
:10E2BE000C6E0C50D8A409D0000E016E000E026E2A
:10E2CE00000E036E000E046E1200063407340B6E41
:10E2DE000B50D8A409D0000E016E000E026E000E77
:10E2EE00036E000E046E1200038EFF0E0116FF0E5B
:10E2FE000216FF0E0316000E0416068EFF0E0416EF
:10E30E00FF0E0516FF0E0616000E0716000E076E00
:10E31E00000E086E000E096E000E0A6E7F0E0C5E69
:10E32E000B50A00F0C5E200E0B6ED89007360836E1
:10E33E0009360A360450015C05500258065003583F
:10E34E0007500458D8A009D00450015E0550025A57
:10E35E000650035A0750045A0780D89001360236E9
:10E36E00033604360B2EE1D70CAE16D00C50800AB5
:10E37E009F0FD8B009D0000E016E000E026E000E77
:10E38E00036E000E046E1200D8900A320932083263
:10E39E0007320C3EF9D715D01F0E0C640FD0000EAD
:10E3AE00016E000E026E000E036E000E046E120061
:10E3BE00D8900736083609360A360C060C50D8A403
:10E3CE00F7D707C001F008C002F009C003F00AC079
:10E3DE0004F0120003C007F0086A096A0234073617
:10E3EE0001E3088007500F6E0F50D8A409D0000E1D
:10E3FE00016E000E026E000E036E000E046E120011
:10E40E0006C007F0086A096A0534073601E308807A
:10E41E0007500E6E0E50D8A409D0000E016E000EDD
:10E42E00026E000E036E000E046E1200028EFF0EC0
:10E43E000116FF0E0216000E0316058EFF0E0416B1
:10E44E00FF0E0516000E0616000E0A6E000E0B6E5F
:10E45E00000E0C6E000E0D6E7F0E0F5E0E50980F9E
:10E46E000F5E180E0E6ED8900A360B360C360D3621
:10E47E000450015C0550025806500358D8A007D02E
:10E48E000450015E0550025A0650035A0A80D89075
:10E49E000136023603360E2EE6D70FAE16D00F50CB
:10E4AE00800A970FD8B009D0000E016E000E026ED2
:10E4BE00000E036E000E046E1200D8900D320C3258
:10E4CE000B320A320F3EF9D715D0170E0F640FD04C
:10E4DE00000E016E000E026E000E036E000E046E34
:10E4EE001200D8900A360B360C360D360F060F502A
:10E4FE00D8A4F7D70AC001F00BC002F00CC003F08D
:10E50E000DC004F0120081B656D0010E026E2C0E14
:10E51E00016E00EC6BF0020E7B187C10D8A409D0B3
:10E52E00745007E13B0E735CD8B003D0734A742A63
:10E53E000ED0020E7B187C10D8A409D03B0E731897
:10E54E007410D8A404D0000E746E000E736E7B048B
:10E55E007C10D8A409D0725007E13B0E715CD8B084
:10E56E0003D0714A722A0DD07B047C10D8A409D036
:10E57E003B0E71187210D8A404D0000E726E000EED
:10E58E00716E7B507C10D8A409D0705007E1170E25
:10E59E006F5CD8B003D06F4A702A0DD07B507C10C0
:10E5AE00D8A409D0170E6F187010D8A404D0000E7E
:10E5BE00706E000E6F6E81B81200010E026E2C0E80
:10E5CE00016E00EC6BF0020E7B187C10D8A408D004
:10E5DE0073507410D8B404D07306D8A074060DD03E
:10E5EE00020E7B187C10D8A408D073507410D8A4D7
:10E5FE0004D0000E746E3B0E736E7B047C10D8A498
:10E60E0008D071507210D8B404D07106D8A072061A
:10E61E000CD07B047C10D8A408D071507210D8A4F2
:10E62E0004D0000E726E3B0E716E7B507C10D8A41F
:10E63E0008D06F507010D8B404D06F06D8A07006F2
:10E64E0012007B507C10D8A412006F507010D8A40A
:10E65E001200000E706E170E6F6E120081B65CD037
:10E66E00010E026E2C0E016E00EC6BF0020E7D1888
:10E67E007E10D8A409D0765007E13B0E755CD8B059
:10E68E0003D0754A762A0ED0020E7D187E10D8A4BD
:10E69E0009D03B0E75187610D8A404D0000E766EF5
:10E6AE00000E756E7D047E10D8A40CD00001E751CB
:10E6BE0009E13B0E0001E65DD8B004D00001E64B47
:10E6CE00E72B10D07D047E10D8A40CD03B0E000199
:10E6DE00E6190001E711D8A405D0000E0001E76F7E
:10E6EE00000EE66F7D507E10D8A409D0785007E159
:10E6FE00170E775CD8B003D0774A782A0DD07D50AC
:10E70E007E10D8A409D0170E77187810D8A404D08C
:10E71E00000E786E000E776E81B81200010E026E3A
:10E72E002C0E016E00EC6BF0020E7D187E10D8A43C
:10E73E0008D075507610D8B404D07506D8A07606D9
:10E74E000DD0020E7D187E10D8A408D0755076100C
:10E75E00D8A404D0000E766E3B0E756E7D047E102E
:10E76E00D8A40BD00001E6510001E711D8B405D0B2
:10E77E000001E607D8A0E7070FD07D047E10D8A4CD
:10E78E000BD00001E6510001E711D8A405D0000E10
:10E79E000001E76F3B0EE66F7D507E10D8A408D0C7
:10E7AE0077507810D8B404D07706D8A07806120027
:10E7BE007D507E10D8A4120077507810D8A4120085
:10E7CE00000E786E170E776E120030C034F0356A78
:10E7DE00366A2F34343601E335803450396E33C007
:10E7EE0034F0356A366A3234343601E335803450CB
:10E7FE00386E3950D8B40BD03850395CD8B00ED0F2
:10E80E00395000083824346E180E346407D031C0E5
:10E81E002EF032C02FF033C030F012003850D8B482
:10E82E000BD03950385CD8B00ED03850000839248F
:10E83E00346E180E346407D02EC02EF02FC02FF079
:10E84E0030C030F01200060E376E30BE378E33BE3B
:10E85E00378C2F8EFF0E2E16FF0E2F16000E301633
:10E86E00328EFF0E3116FF0E3216000E3316385052
:10E87E00395CD8B01BD0D8903136323633363806A4
:10E88E0039503818D8B40DD0370637C034F0070ECB
:10E89E003416D8B406D0EFD7D89030322F322E326D
:10E8AE00392A38503918D8B41FD0F6D73950385CB9
:10E8BE00D8B01AD0D8902E362F3630363906395079
:10E8CE003818D8B40DD0370637C034F0070E3416CA
:10E8DE00D8B406D0EFD7D890333232323132382A0C
:10E8EE0038503918D8A4F7D737AE0CD0FF0E2E1AE1
:10E8FE00FF0E2F1AFF0E301A010E2E26000E2F229B
:10E90E00000E302237AC0CD0FF0E311AFF0E321A29
:10E91E00FF0E331A010E3126000E3222000E332264
:10E92E00000E376E2E5031262F50322230503322A9
:10E93E0033AE0ED0FF0E311AFF0E321AFF0E331AFF
:10E94E00010E3126000E3222000E3322010E376EDA
:10E95E0031C001F032C002F033C003F039C004F010
:10E96E0037C005F018EC6FF001C02EF002C02FF08A
:10E97E0003C030F012002D6E6D0E2D64A8D0000E67
:10E98E00126E030E116E000E0A6E0A0E096E000E46
:10E99E00046E640E036E2DC001F0026AD4EC6DF0AD
:10E9AE0001C007F002C008F08EEC6EF0090E0724CD
:10E9BE000F6E000E0820106E36EC6BF0150E0F2445
:10E9CE00F66EFF0E1020F76EF86A000EF8220900A0
:10E9DE00F5CF18F00900F5CF19F00A00F5CF1AF0AF
:10E9EE00000E0A6E640E096E2DC007F0086A8EECDA
:10E9FE006EF0120E07240F6E000E0820106E000E21
:10EA0E00126E030E116E36EC6BF0150E0F24F66EB1
:10EA1E00FF0E1020F76EF86A000EF8220900F5CFEF
:10EA2E0015F00900F5CF16F00A00F5CF17F05CECE3
:10EA3E0070F015C02AF016C02BF017C02CF0000E87
:10EA4E00126E030E116E000E046E0A0E036E2DC0B2
:10EA5E0001F0026AD4EC6DF001C00FF002C010F0AC
:10EA6E0036EC6BF0150E0F24F66EFF0E1020F76EBF
:10EA7E00F86A000EF8220900F5CF18F00900F5CF5C
:10EA8E0019F00A00F5CF1AF02AC015F02BC016F0B7
:10EA9E002CC017F05CEC70F015C027F016C028F0F3
:10EAAE0017C029F027C015F028C016F029C017F09E
:10EABE00000E186E000E196E3F0E1A6E5CEC70F0A2
:10EACE0015C024F016C025F017C026F012000A0E4D
:10EADE002D6463D0000E126E030E116E000E046EC6
:10EAEE000A0E036E2DC001F0026AD4EC6DF001C067
:10EAFE000FF002C010F036EC6BF0150E0F24F66E10
:10EB0E00FF0E1020F76EF86A000EF8220900F5CFFE
:10EB1E0018F00900F5CF19F00A00F5CF1AF0000E23
:10EB2E000A6E0A0E096E2DC007F0086A8EEC6EF0A2
:10EB3E00090E07240F6E000E0820106E000E126EC6
:10EB4E00030E116E36EC6BF0150E0F24F66EFF0EE3
:10EB5E001020F76EF86A000EF8220900F5CF15F0B6
:10EB6E000900F5CF16F00A00F5CF17F05CEC70F047
:10EB7E0015C02AF016C02BF017C02CF02AC015F0C5
:10EB8E002BC016F02CC017F0000E186E000E196E6A
:10EB9E003F0E1A6E5CEC70F093D72D50030D150ED0
:10EBAE00F324F66EFF0EF420F76EF86A000EF822CC
:10EBBE000900F5CF15F00900F5CF16F00A00F5CFD4
:10EBCE0017F0000E186E000E196E3F0E1A6E5CECEA
:10EBDE0070F015C024F016C025F017C026F01200F4
:10EBEE00E0EC6AF0000EF26E000EF16E000EF06EAA
:10EBFE00200E9D6E000E9E6E000E9F6E000EA06E7D
:10EC0E00000EA06E000EA16E000EA26ED09EF18AB6
:10EC1E00F18CF28EF28CEB0E0001E46FFF0E000110
:10EC2E00E56F000E0001BD6F000EBC6F000E7A6E18
:10EC3E00000E796E000E7C6E000E7B6E000E7E6EE8
:10EC4E00000E7D6E000E0001B56F000EB46F000E4B
:10EC5E00746E320E736E000E726E390E716E000E81
:10EC6E00706E160E6F6E000E766E0C0E756E000EBA
:10EC7E000001E76F080EE66F000E786E000E776EDD
:10EC8E0009EC6DF0CBEC6AF00400000E026EC80EBB
:10EC9E00016E00EC6BF0000E0001BB6F000EBA6F40
:10ECAE00000E0001AF6F020E0001AF6501D01CD047
:10ECBE000001AF516DEC6DF028C0A9F029C0AAF08B
:10ECCE002AC0ABF00001AF51030DA00EF324D96E94
:10ECDE00000EF420DA6EA9C0DEFFAAC0DEFFABC0C4
:10ECEE00DEFF0001AF2BDFD7010E0B6E0C0E6BECAF
:10ECFE006CF0A6C015F0A7C016F0A8C017F0000E55
:10ED0E00186EC80E196E420E1A6E5CEC70F015C0BD
:10ED1E00ACF016C0ADF017C0AEF0800E406E000E17
:10ED2E00416EEF0E426EFF0E436EACC044F0ADC0AE
:10ED3E0045F0AEC046F0C1EC79F0800E0F6E000EBD
:10ED4E00106E24EC6BF081A49CEC6BF081BA12D0A7
:10ED5E000001B8510001B911D8A402D0010E01D0A2
:10ED6E00000E0001B86FB96B0001B8B102D0829AE3
:10ED7E0001D0828A81A05DEC6BF079507A10D8A414
:10ED8E0081B20DD079047A10D8A403D049EC6BF07F
:10ED9E0006D0020E79187A10D8B471EC6BF0010E11
:10EDAE000B6E010E6BEC6CF079507A10D8B405D066
:10EDBE00020E79187A10D8A405D0A0EC6DF035ECBF
:10EDCE0073F005D079047A10D8B48AEC72F0800E04
:10EDDE00406E000E416E730E426EFF0E436E6FC09C
:10EDEE0044F070C045F071C046F072C047F073C079
:10EDFE0048F074C049F0C1EC79F0800E0F6E000E31
:10EE0E00106E24EC6BF0020E0B6E010E6BEC6CF0C0
:10EE1E00800E406E000E416E730E426EFF0E436EFC
:10EE2E0077C044F078C045F0E6C046F0E7C047F042
:10EE3E0075C048F076C049F0C1EC79F0800E0F6EC7
:10EE4E00000E106E24EC6BF0040E0B6E010E6BECCC
:10EE5E006CF0EEEC6BF0800E406E000E416EF50E17
:10EE6E00426EFF0E436EE2C044F0E3C045F0C1ECCB
:10EE7E0079F0800E0F6E000E106E24EC6BF0020E09
:10EE8E000B6E0C0E6BEC6CF02BEC6CF0800E406E7F
:10EE9E00000E416EFA0E426EFF0E436EE4C044F059
:10EEAE00E5C045F0C1EC79F0800E0F6E000E106ECD
:10EEBE0024EC6BF0030E0B6E010E6BEC6CF0D6ECCB
:10EECE0070F0BE0E0F6E000E106E24EC6BF0040E82
:10EEDE000B6E0C0E6BEC6CF0EEEC6BF02BEC6CF036
:10EEEE000001B4050001B511D8A411D00001B6057A
:10EEFE000001B711D8A40BD0800E406E000E416EEB
:10EF0E00E30E426EFF0E436EC1EC79F00AD0800E16
:10EF1E00406E000E416EE90E426EFF0E436EC1EC66
:10EF2E0079F0800E0F6E000E106E24EC6BF0010E59
:10EF3E00026EF40E016E00EC6BF0A6D62A6E2AAEAF
:10EF4E000DD12A6C2A50800A120FD8A09AD0000E2A
:10EF5E00126E030E116E000E0A6E0A0E096E000E70
:10EF6E00046E640E036E2A50016E026A01BE020622
:10EF7E00D4EC6DF001C007F002C008F08EEC6EF01C
:10EF8E00090E07240F6E000E0820106E36EC6BF083
:10EF9E00150E0F24F66EFF0E1020F76EF86A000E97
:10EFAE00F8220900F5CF18F00900F5CF19F00A0084
:10EFBE00F5CF1AF0000E0A6E640E096E2A50076E17
:10EFCE00086A07BE08068EEC6EF0120E07240F6E4E
:10EFDE00000E0820106E000E126E030E116E36EC2F
:10EFEE006BF0150E0F24F66EFF0E1020F76EF86AFA
:10EFFE00000EF8220900F5CF15F00900F5CF16F036
:10F00E000A00F5CF17F05CEC70F015C027F016C0B3
:10F01E0028F017C029F027C015F028C016F029C017
:10F02E0017F0000E126E030E116E000E046E0A0E15
:10F03E00036E2A50016E026A01BE0206D4EC6DF018
:10F04E0001C00FF002C010F036EC6BF0150E0F245D
:10F05E00F66EFF0E1020F76EF86A000EF822090009
:10F06E00F5CF18F00900F5CF19F00A00F5CF1AF018
:10F07E005CEC70F015C024F016C025F017C026F019
:10F08E0012002A50800A750FD8A053D0000E0A6EB7
:10F09E000A0E096E2A50076E086A07BE08068EEC25
:10F0AE006EF0090E07240F6E000E0820106E000E73
:10F0BE00126E030E116E36EC6BF0150E0F24F66EFB
:10F0CE00FF0E1020F76EF86A000EF8220900F5CF39
:10F0DE0015F00900F5CF16F00A00F5CF17F0000E67
:10F0EE00126E030E116E000E046E0A0E036E2A507F
:10F0FE00016E026A01BE0206D4EC6DF001C00FF083
:10F10E0002C010F036EC6BF0150E0F24F66EFF0EEB
:10F11E001020F76EF86A000EF8220900F5CF18F0ED
:10F12E000900F5CF19F00A00F5CF1AF05CEC70F07B
:10F13E00A1D72A50030D150EF324F66EFF0EF42000
:10F14E00F76EF86A000EF8220900F5CF24F00900D8
:10F15E00F5CF25F00A00F5CF26F012002A50800ACE
:10F16E00120FD8A09AD0000E126E030E116E000E62
:10F17E000A6E0A0E096E000E046E640E036E2A509D
:10F18E00016E026A01BE0206D4EC6DF001C007F0FA
:10F19E0002C008F08EEC6EF0090E07240F6E000E02
:10F1AE000820106E36EC6BF03C0E0F24F66EFF0E40
:10F1BE001020F76EF86A000EF8220900F5CF18F04D
:10F1CE000900F5CF19F00A00F5CF1AF0000E0A6EFD
:10F1DE00640E096E2A50076E086A07BE08068EEC8A
:10F1EE006EF0120E07240F6E000E0820106E000E29
:10F1FE00126E030E116E36EC6BF03C0E0F24F66E93
:10F20E00FF0E1020F76EF86A000EF8220900F5CFF7
:10F21E0015F00900F5CF16F00A00F5CF17F05CECEB
:10F22E0070F015C027F016C028F017C029F027C0BF
:10F23E0015F028C016F029C017F0000E126E030E3E
:10F24E00116E000E046E0A0E036E2A50016E026AD3
:10F25E0001BE0206D4EC6DF001C00FF002C010F03A
:10F26E0036EC6BF03C0E0F24F66EFF0E1020F76E90
:10F27E00F86A000EF8220900F5CF18F00900F5CF54
:10F28E0019F00A00F5CF1AF05CEC70F015C024F0FE
:10F29E0016C025F017C026F012002A50800A750FEE
:10F2AE00D8A053D0000E0A6E0A0E096E2A50076EB1
:10F2BE00086A07BE08068EEC6EF0090E07240F6E64
:10F2CE00000E0820106E000E126E030E116E36EC3C
:10F2DE006BF03C0E0F24F66EFF0E1020F76EF86AE0
:10F2EE00000EF8220900F5CF15F00900F5CF16F043
:10F2FE000A00F5CF17F0000E126E030E116E000EFF
:10F30E00046E0A0E036E2A50016E026A01BE0206D8
:10F31E00D4EC6DF001C00FF002C010F036EC6BF0C3
:10F32E003C0E0F24F66EFF0E1020F76EF86A000EDC
:10F33E00F8220900F5CF18F00900F5CF19F00A00F0
:10F34E00F5CF1AF05CEC70F0A1D72A50030D3C0EED
:10F35E00F324F66EFF0EF420F76EF86A000EF82214
:10F36E000900F5CF24F00900F5CF25F00A00F5CFFE
:10F37E0026F01200440E556E000E566E61EF7FF0B1
:10F38E00250E6C18D8B40AD040C0D9FF41C0DAFFA0
:10F39E006CC0DFFF404A412A61EF7FF0000E696EBC
:10F3AE00000E686E000E646E000E636E03D06384F2
:10F3BE00424A432A42C0F6FF43C0F7FFF86A0800EC
:10F3CE00F550300AD8B4F3D742C0F6FF43C0F7FF6A
:10F3DE00F86A0800F550D1EC6AF0D8A034D0000ECF
:10F3EE00696E000E686E68C00FF069C010F0000EF6
:10F3FE00126E0A0E116E36EC6BF00FC068F010C074
:10F40E0069F0D00E4A6EFF0E4B6E42C0F6FF43C03F
:10F41E00F7FFF86A0800F5504C6E4D6A4A504C26BC
:10F42E004B504D224C5068264D506922424A432A79
:10F43E0042C0F6FF43C0F7FFF86A0800F550D1EC62
:10F44E006AF0D8B0D0D742C0F6FF43C0F7FFF86AD3
:10F45E000800F5502E0AD8A430D0648C424A432AB4
:10F46E00000E6B6E000E6A6E1CD06AC00FF06BC081
:10F47E0010F0000E126E0A0E116E36EC6BF042C0DA
:10F48E00F6FF43C0F7FFF86A0800F5500F26000E8E
:10F49E001022D00E0F246A6EFF0E10206B6E424AA1
:10F4AE00432A42C0F6FF43C0F7FFF86A0800F55042
:10F4BE00D1EC6AF0D8A07DD0D8D7000E6B6E000EBE
:10F4CE006A6E648876D0648491D055C0D9FF56C0D8
:10F4DE00DAFFDECF53F0DDCF54F0020E5526000ECC
:10F4EE00562253505410D8A404D0DC0E536EFF0E87
:10F4FE00546E000E586E000E576E02D0574A582AA0
:10F50E00575053244A6E585054204B6E4AC0F6FF43
:10F51E004BC0F7FFF86A0800F5500009D8A4EED7E3
:10F52E006A506B10D8B40AD057506A5C58506B585A
:10F53E00D8B004D06AC057F06BC058F06850575C12
:10F54E0069505858D8B005D05750685E5850695A0F
:10F55E000DD0000E696E000E686E08D040C0D9FF47
:10F56E0041C0DAFF200EDF6E404A412A6806D8A05D
:10F57E0069066828F3E16928D8B411D0EFD753C0D3
:10F58E00F6FF54C0F7FFF86A40C0D9FF41C0DAFF5A
:10F59E000800F5CFDFFF534A542A404A412A570646
:10F5AE00D8A058065728EBE15828D8B461EF7FF061
:10F5BE00E6D742C0F6FF43C0F7FF424A432AF86A35
:10F5CE000800F5CF6CF06C50000AD8B46FEF7FF0E6
:10F5DE00640AD8B40BD0020AD8B475D70F0AD8B4BF
:10F5EE0005D01A0AD8B471D761EF7FF0070E6414F4
:10F5FE00D8B426D364A804D0000E6B6E060E6A6EC5
:10F60E0055C0D9FF56C0DAFFDECF65F0DECF66F00B
:10F61E00DDCF67F0030E5526000E562267AE10D0D2
:10F62E0065C001F066C002F067C003F012EC6BF02B
:10F63E0001C065F002C066F003C067F0030E6312EE
:10F64E00000E626E000E616E655066106710D8B4C3
:10F65E0083D0820E4A6EFF0E4B6E65C04CF066C0B4
:10F66E004DF067C04EF068C04FF0100E05D0D89028
:10F67E004F324E324D324C32E82EF9D74C504A248E
:10F68E00616E000E4B20626E6106D8A0620661C0EC
:10F69E000FF062C010F0000E126E030E116E36ECFB
:10F6AE006BF00FC061F010C062F061C007F062C075
:10F6BE0008F0000E0A6E0A0E096E8EEC6EF007C090
:10F6CE0061F008C062F062AE03D06106D8A0620697
:10F6DE0061500008A5EC77F024C059F025C05AF00F
:10F6EE0026C05BF059C015F05AC016F05BC017F07B
:10F6FE0065C018F066C019F067C01AF05CEC70F0C7
:10F70E0015C059F016C05AF017C05BF059C001F081
:10F71E005AC002F05BC003F0000E046E800E056E40
:10F72E003F0E066ED0EC6EF0D8B004D06106D8A0B5
:10F73E00620612D059C001F05AC002F05BC003F04D
:10F74E00000E046E200E056E410E066ED0EC6EF0AD
:10F75E00D8A002D0614A622A6BBE06D06B501BE164
:10F76E000D0E6A5CD8B017D065C02EF066C02FF0B3
:10F77E0067C030F06A50C2EC74F024C031F025C07E
:10F78E0032F026C033F0ECEC73F02EC065F02FC0D3
:10F79E0066F030C067F062BE06D062501EE10A0EFF
:10F7AE00615CD8B01AD0655066106710D8B451D0CD
:10F7BE0065C02BF066C02CF067C02DF0E2EC6FF048
:10F7CE002B502C102D102E10D8B462BE42D0625089
:10F7DE0004E1020E615CD8A03CD059C001F05AC0C1
:10F7EE0002F05BC003F0700E046E890E056E400EC3
:10F7FE00066ED0EC6EF0D8B002D0F70E01D0F80E37
:10F80E006126FF0E62226150A5EC77F024C059F0FC
:10F81E0025C05AF026C05BF065C001F066C002F04C
:10F82E0067C003F059C004F05AC005F05BC006F083
:10F83E00F1EC71F001C05DF002C05EF003C05FF04C
:10F84E0004C060F0000E656E000E666E000E676EF0
:10F85E0032D065C02BF066C02CF067C02DF0E2EC04
:10F86E006FF02BC05DF02CC05EF02DC05FF02EC08F
:10F87E0060F065C03AF066C03BF067C03CF05DC01A
:10F88E0009F05EC00AF05FC00BF060C00CF0DBEC5C
:10F89E006CF009C03DF00AC03EF00BC03FF04BECDF
:10F8AE006CF03AC065F03BC066F03CC067F0000EED
:10F8BE00626E000E616E010E6C6E0A0E6C18D8B47C
:10F8CE001BD06C50040DED0EF324F66EFE0EF420DC
:10F8DE00F76EF86A000EF8220900F5505D5C09001B
:10F8EE00F5505E580900F5505F580900F550605804
:10F8FE00D8A002D06C2AE1D76CC04AF04B6A4ABE3F
:10F90E004B066A504A266B504B2261504A26625073
:10F91E004B224A50685E4B50695A6A506B10D8B4ED
:10F92E0003D06806D8A06906030E63144A6E000E53
:10F93E0064144B6E4A504B10D8B403D06806D8A04E
:10F94E00690663A431D0030E63144A6E000E64146C
:10F95E004B6E4A504B10D8B414D040C0D9FF41C0A2
:10F96E00DAFF2D0EDF6E404A412A0BD040C0D9FF80
:10F97E0041C0DAFF300EDF6E404A412A6806D8A039
:10F98E00690669BE76D06950F1E16804D8A071D0DD
:10F99E00EDD740C0D9FF41C0DAFF200EDF6E404ADE
:10F9AE00412A6806D8A0690669BE05D06950F1E102
:10F9BE006804D8B0EED7030E63144A6E000E6414BA
:10F9CE004B6E4A504B10D8B454D040C0D9FF41C0F2
:10F9DE00DAFF2D0E4CD0404A412A4BD05DC001F0CB
:10F9EE005EC002F05FC003F060C004F06C50040D06
:10F9FE00ED0EF324F66EFE0EF420F76EF86A000E8E
:10FA0E00F8220900F5CF05F00900F5CF06F0090040
:10FA1E00F5CF07F00A00F5CF08F04DEC6EF001C0FF
:10FA2E0059F002C05AF003C05BF004C05CF059C03C
:10FA3E000EF05AC00FF05BC010F05CC011F00A0E51
:10FA4E00126E000E136E000E146E000E156E3AEC52
:10FA5E006DF00EC059F00FC05AF010C05BF011C01F
:10FA6E005CF05950300F40C0D9FF41C0DAFFDF6E55
:10FA7E00B2D76C066C28D8B40CD0B0D740C0D9FF22
:10FA8E0041C0DAFF300EDF6E404A412A6106D8A02F
:10FA9E00620662BE05D06250F1E16104D8B0EED7C5
:10FAAE006BBE09D06B5004E1090E6A5CD8A003D07E
:10FABE00080E6C6E02D06AC06CF06C506A5E000E5E
:10FACE006CBEFF0E6B5A6C50D8B408D040C0D9FF34
:10FADE0041C0DAFF2E0EDF6E404A412A6C50A5EC73
:10FAEE0077F024C050F025C051F026C052F065C00A
:10FAFE0018F066C019F067C01AF050C015F051C06A
:10FB0E0016F052C017F05CEC70F015C02BF016C05A
:10FB1E002CF017C02DF0E2EC6FF02BC05DF02CC076
:10FB2E005EF02DC05FF02EC060F075D05DC001F0AC
:10FB3E005EC002F05FC003F060C004F06C50040DB4
:10FB4E00ED0EF324F66EFE0EF420F76EF86A000E3C
:10FB5E00F8220900F5CF05F00900F5CF06F00900EF
:10FB6E00F5CF07F00A00F5CF08F04DEC6EF001C0AE
:10FB7E0059F002C05AF003C05BF004C05CF059C0EB
:10FB8E000EF05AC00FF05BC010F05CC011F00A0E00
:10FB9E00126E000E136E000E146E000E156E3AEC01
:10FBAE006DF00EC059F00FC05AF010C05BF011C0CE
:10FBBE005CF05950300F40C0D9FF41C0DAFFDF6E04
:10FBCE00404A412A5DC00EF05EC00FF05FC010F0DB
:10FBDE0060C011F06C50040DED0EF324F66EFE0EA7
:10FBEE00F420F76EF86A000EF8220900F5CF12F035
:10FBFE000900F5CF13F00900F5CF14F00A00F5CF88
:10FC0E0015F03AEC6DF00EC05DF00FC05EF010C056
:10FC1E005FF011C060F06C066C28D8B40CD086D79B
:10FC2E0040C0D9FF41C0DAFF300EDF6E404A412A94
:10FC3E006A06D8A06B066A506B10D8B43BD1F0D7C9
:10FC4E0055C0D9FF56C0DAFFDECF5DF0DDCF5EF0D6
:10FC5E00000E5EBEFF0E5F6E606E020E5526000E2B
:10FC6E00562260AE0AD0030E6312601E5F1E5E1E29
:10FC7E005D6C000E5E225F2260226A506B10D8A46B
:10FC8E0008D05D505E105F106010D8A402D06A4A92
:10FC9E006B2A010E6C6E0A0E6C18D8B41BD06C5009
:10FCAE00040DED0EF324F66EFE0EF420F76EF86AD8
:10FCBE00000EF8220900F5505D5C0900F5505E5803
:10FCCE000900F5505F580900F5506058D8A002D0D1
:10FCDE006C2AE1D7800E6CBE7F0E4A6E6A506C5C49
:10FCEE006B50800A4A58D8B003D06AC06CF010D05E
:10FCFE006B50800A4A6E6C506A5C800E6CBE7F0E32
:10FD0E004A58D8B005D06C506A6E6B6A6ABE6B06E4
:10FD1E0068506910D8B40DD0030E63144A6E000EED
:10FD2E0064144B6E4A504B10D8B403D06806D8A05A
:10FD3E00690664AC13D068506A5C6B50800A4A6ED8
:10FD4E006950800A4A58D8B005D06A50685E6B5028
:10FD5E00695A04D0000E696E000E686E800E6CBE7D
:10FD6E007F0E4A6E68506C5C6950800A4A58D8B053
:10FD7E0007D06C50685E000E6CBEFF0E695A04D040
:10FD8E00000E696E000E686E63A422D0030E63141B
:10FD9E004A6E000E64144B6E4A504B10D8B408D005
:10FDAE0040C0D9FF41C0DAFF2D0EDF6E404A412A16
:10FDBE0068506910D8B476D040C0D9FF41C0DAFF80
:10FDCE00300EDF6E404A412A6806D8A06906F0D789
:10FDDE0068506910D8B40FD040C0D9FF41C0DAFFC7
:10FDEE00200EDF6E404A412A6806D8A06906685088
:10FDFE006910D8A4F1D7030E63144A6E000E641472
:10FE0E004B6E4A504B10D8B44DD040C0D9FF41C0B4
:10FE1E00DAFF2D0EDF6E44D06AC04AF06BC04BF095
:10FE2E00D8904A364B36D8904A364B36ED0E4A2489
:10FE3E00F66EFE0E4B20F76EF86A000EF8220900E1
:10FE4E00F5CF05F00900F5CF06F00900F5CF07F064
:10FE5E000A00F5CF08F05DC001F05EC002F05FC091
:10FE6E0003F060C004F04DEC6EF001C00EF002C065
:10FE7E000FF003C010F004C011F00A0E126E000E47
:10FE8E00136E000E146E000E156E3AEC6DF00E50E1
:10FE9E00300F6C6E40C0D9FF41C0DAFF6CC0DFFF7F
:10FEAE00404A412A6A06D8A06B066A28B5E16B283B
:10FEBE00D8A4B2D742C0F6FF43C0F7FF424A432A46
:10FECE00F86A0800F5CF6CF06C50D8A4C7EF79F043
:10FEDE0040C0D9FF41C0DAFF000EDF6E12000001F4
:10FEEE000000000A00000064000000E8030000109B
:10FEFE00270000A086010040420F00809698000067
:10FF0E00E1F50500CA9A3B00803FCDCC3DD7233C9E
:10FF1E0012833AB7D138C62737388635C0D633CC98
:10FF2E002B32708930E7DB2EE53C1E42A20D00809D
:10FF3E003F00204100C842007A44401C4650C3474F
:10FF4E0024744997184BBCBE4C6B6E4E03155079FA
:10FF5E00AD60F349714E6F726D616C2020202020D0
:10FF6E002020202000253032643A253032643A2594
:10FF7E0030326400436C6F636B206D696E202020FD
:10FF8E000054696D6572206D696E20202000436CEF
:10FF9E006F636B2068727320200054696D65722048
:10FFAE00687273202000436C6F636B20736563204F
:10FFBE000054696D6572207365632000456E616241
:10FFCE006C6564200044697361626C656400286E20
:10FFDE00756C6C2900533A4F4E2000533A4F4646EB
:10FFEE000025342E326600483A257300543A2573A4
:02FFFE00000001
:020000040020DA
:08000000FFFFFFFFFFFFFFFF00
:020000040030CA
:0E000000FF011F1FFF8385FF0FC00FE00F40A1
:00000001FF
